:020000000A28CC
:10000800FE00030EF0000A08F10062290B288301A4
:100018000D287421D3200230FA0001301A218312EE
:10002800A701F501F50A2708013E8400A820FA2057
:1000380001308312A4002408A7070F302702031CED
:1000480026282728152806308312A6001330A50075
:10005800AD30A400A40B2E28A50B2E28A60B2E2805
:100068000000FA01FA0A02301A211030FA0016309C
:100078004E2010308312A6003930A5000D30A400A0
:10008800A40B4428A50B4428A60B442800003721BC
:100098000F280A288312A200A3016928F501F50A8E
:1000A8008312230822078400A820FA20073083122D
:1000B800A1007C30A000A00B5F28A10B5F2864285A
:1000C80001308312A0002008A3077A08FF3EA00091
:1000D800FF3003180030A1002108803A803C031D3E
:1000E800772820082302031C7A287B285228080036
:1000F800F300F401F31B81288428831285168628CF
:10010800831285120310F30D0330F200F20B8A28D4
:10011800831205148F289028000083120510942854
:10012800952800000130F2007208F40708307402C4
:10013800031C9F28A0287E2883120514A328A4281E
:10014800000083120510080000308A000408840AA1
:100158008207003447346C346F3469347234653440
:1001680020346134753420344334443442342034E8
:100178002134003428340E3402340134203450340D
:100188006F3475347234203474346F3475346A348F
:100198006F3475347234733420342134003482302F
:1001A800FB00DD30FA00FA0BD728FB0BD728DC2838
:1001B80000307C20DF28E028000002307C2050211D
:1001C8001030FA00FA0BE6280000F5010E30FA208C
:1001D8001030FA00FA0BEE280000F5012830FA205A
:1001E8001030FA00FA0BF62800000800F70077082C
:1001F800F60004300310F60CFF3E031DFE287608B7
:10020800F90077080F39F800750803190C290D292A
:10021800132979081038F90078081038F800790897
:100228007C20502178087C20502108008312A200ED
:100238007A087F3EA30002302206031D24292529BF
:1002480029294030A0002008A307F5012308FA2037
:1002580003308312A1009730A000A00B3129A10B15
:10026800312900000800F5010130FA200330FB00B5
:100278009730FA00FA0B3E29FB0B3E294329F5017A
:100288000230FA200330FB009730FA00FA0B4A29B3
:10029800FB0B4A294F2908005129522900008312D3
:1002A80085140430F200F20B57295A29831285105D
:1002B8000430F200F20B5E29612908008B1E6529C3
:1002C80066296D290B1D69296A296D29000000001E
:1002D8000B1171088A00700E8300FE0E7E0E090055
:1002E80083160F088F3960388F0007308312990002
:0E02F80083169F011C308500831285010800CB
:08400000FF3FFF3FFF3FFF3FC0
:02400E00C430BC
:00000001FF
