:02000000FE2FD1
:100F780083160F088F3960388F0007308312990461
:100F8800583083169F003F3085000C3083129F0035
:100F98000C3095000800BC273E30831293000330C4
:100FA80092047C3083169200831212158C1CDD2F5C
:100FB800DE2FDA2F8316051183120C1383121F14E8
:100FC800E52FE62F83129F140C1FEB2FEC2FE82F31
:100FD8001E0893000C130230F2004530F100A930CE
:100FE800F000F00BF52FF10BF52FF20BF52FFC2F7E
:080FF800E22F00288301CF2F36
:08400000FF3FFF3FFF3FFF3FC0
:02400E00C430BC
:00000001FF
