:020000000A28CC
:10000800FE00030EF0000A08F100D8280B28F701BB
:10001800F80183010F28ED200B178B171930F60014
:10002800771C172818288428F830F20072088312E1
:1000380085053C288312050CF200720C0139F20088
:100048000130F206F20DF20D05087206FB39720650
:1000580085000230F4000430F300BA30F200F20BED
:100068003328F30B3328F40B332800000130F60251
:100078007608031D402841281E28F830F20072082F
:1000880083128505F5018312050C0139F200013050
:10009800F206F20D05087206FD3972068500053074
:1000A800F4000F30F300F130F200F20B5928F30B93
:1000B8005928F40B59280130F2007208F5070A3064
:1000C8007502031C6828692847280130F200720865
:1000D800F80705307802031C7228732877288312E2
:1000E8001814F801630083160F103430F300F13050
:1000F800F200F20B7D28F30B7D2882281930F600D8
:1001080083168F1D88288928AD28771083120C1133
:1001180083160C15F830F200720883128505113029
:10012800F4003C30F300CB30F200F20B9928F30BCB
:100138009928F40B9928831205141130F4003C30E7
:10014800F300CB30F200F20BA728F30BA728F40B2F
:10015800A72883168F19B128B228D5287718B5286B
:10016800B628D528F830F2007208831285050530C4
:10017800F4000F30F300F130F200F20BC128F30B5A
:10018800C128F40BC128831285140530F4000F3000
:10019800F300F130F200F20BCF28F30BCF28F40B69
:1001A800CF28000014280A2883160C1DDC28DD2817
:1001B800E62883120C1DE128E228E6287714831626
:1001C8000C110F1471088A00700E8300FE0E7E0E4B
:1001D8000900703083168F0438308500831285013A
:1001E80083169F010730831299001808E1390C38EB
:0801F800980083160C150800A5
:08400000FF3FFF3FFF3FFF3FC0
:02400E00C23CB2
:00000001FF
