:020000000A28CC
:10000800FE00030EF0000A08F100552A0B28FA0139
:10001800FB018312AC018301112868220D211230E3
:100028008312A0000630A02141308312A600EE30D2
:10003800A500A50B1D28A60B1D288B1383161C15C0
:100048008312A8012130AA002A08F20028082E22CB
:1000580006308312A00002304222F501F50A83120D
:100068002A08F3218312050E0139A5000130A506DF
:10007800A50E05082506EF392506850006308312EA
:10008800A7001330A600AD30A500A50B4928A60B84
:100098004928A70B4928000001308312A50025082C
:1000A800A8070130A5002508AA072C302A02031C3E
:1000B8005E285F282828050E0139A5000130A5060D
:1000C800A50E05082506EF392506850083161C119F
:1000D8008B1713220D308312A0001830A021831231
:1000E800A901290881228312AC000630A000023041
:1000F8004222F501F50A83122C08F32106308312F7
:10010800A7001330A600AD30A500A50B8928A60BC3
:100118008928A70B8928000001308312A50025082B
:10012800A9070A302902031C9A289B28752813223C
:100138000C308312A0002530A0218B1383161C15C8
:100148008312AB01FF30F2002B082E2206308312F7
:10015800A00002304222F501F50A83122B08303E36
:10016800F3218312050E0139A5000130A506A50E5D
:1001780005082506EF392506850006308312A700F5
:100188001330A600AD30A500A50BC828A60BC828BB
:10019800A70BC828000001308312A5002508AB076B
:1001A8000F302B02031CD928DA28A628050E01399E
:1001B800A5000130A506A50E05082506EF39250678
:1001C800850083161C118B17132202308312A0009E
:1001D800013042220B308312A0003130A0210530BB
:1001E8008312A0000230422208308312A0003C3063
:1001F800A02133308312A700BB30A600DF30A50052
:10020800A50B0429A60B0429A70B04290000E8283C
:100218000A2882308312A100DD30A000A00B122929
:10022800A10B122900000030CE217722033083125F
:10023800A1009730A000A00B1F29A10B1F290000C7
:100248000230CE21772210308312A000A00B2A2979
:10025800F5012830F32110308312A000A00B3229B9
:10026800F5010E30F32110308312A000A00B3A29BB
:10027800F5010130F32103308312A1009730A0006B
:10028800A00B4429A10B44290000F5010230F321F9
:1002980003308312A1009730A000A00B5129A10BB5
:1002A80051290000080001308A000408840A8207E6
:1002B800003428340E340234013402345734723492
:1002C8006934743469346E34673420346534653481
:1002D800703472346F346D342E342E342E3400342E
:1002E800563461346C347534653420347234653472
:1002F8006134643420343A3400344534723461341F
:10030800733469346E3467342034403420343A34DA
:1003180000345434683461347434273473342034EA
:1003280061346C346C34003446346F346C346B3460
:1003380073342034213400348312A300A401BB2970
:10034800F501F50A83122408230784005721F321B5
:1003580007308312A2007C30A100A10BB129A20BA7
:10036800B129B62901308312A1002108A407200869
:10037800FF3EA100FF3003180030A2002208803A97
:10038800803C031DC92921082402031CCC29CD293E
:10039800A4290800F300F401F31BD329D6298312FA
:1003A8000514D829831205100310F30D0330F20049
:1003B800F20BDC2983128514E129E229000083125B
:1003C8008510E629E72900000130F2007208F407D9
:1003D80008307402031CF129F229D0290800F7001B
:1003E8007708F60004300310F60CFF3E031DF729CA
:1003F8007608F90077080F39F80075080319052AF7
:10040800062A0C2A79081038F90078081038F800FC
:100418007908CE2177227808CE2177220800F501C5
:100428000130F32103308312A1009730A000A00B04
:100438001B2AA10B1B2A0000F5010230F32103300F
:100448008312A1009730A000A00B282AA10B282A0C
:1004580000000800F300730883169B0072089A00D6
:1004680055309D00AA309D009C1483128C1F3D2A94
:100478003E2A392A000083128C1308008312A20036
:1004880020087F3EA30002302206031D4C2A4D2A75
:10049800512A4030A1002108A307F5012308F321C0
:1004A800080083168C1F592A5A2A612A83128C1F26
:1004B8005E2A5F2A612A8C137A1471088A00700EEA
:1004C8008300FE0E7E0E090083160F088F396038F0
:1004D8008F0007308312990083169F010C30850026
:1004E8008312850108000000831285167B2A7C2A66
:1004F80000008312851200000800F20072088316BB
:080508009B001C141A080800F6
:08400000FF3FFF3FFF3FFF3FC0
:02400E00C430BC
:00000001FF
